:100000000C942E000C944B000C944B000C944B0061
:100010000C944B000C944B000C944B000C94140566
:100020000C944B000C944B000C944B000C944B0024
:100030000C944B000C944B000C944B000C944B0014
:100040000C944B000C944B000C944B000C944B0004
:100050000C944B000C944B000C944B0011241FBECD
:10006000CFEFD0E1DEBFCDBF11E0A0E0B1E0EEE028
:10007000F5E102C005900D92AC31B107D9F721E04E
:10008000ACE1B1E001C01D92AD32B207E1F70E94D0
:1000900023070C945B0A0C940000CF93DF9300D0ED
:1000A00000D00F92CDB7DEB78D83862F660F990BE8
:1000B000AA0BBB0B89839A83AB83BC83BC01CD01A4
:1000C0000E9462092AE939E949E95EE369837A8392
:1000D0008B839C8369817A818B819C810E94EE094C
:1000E00020E030E04EEF52E469837A838B839C8377
:1000F00069817A818B819C810E94C50869837A839A
:100100008B839C8369817A818B819C810E943109D8
:100110008D810F900F900F900F900F90DF91CF91E6
:100120000C94710594E6981B953608F094E6892F97
:1001300090E00895EAE7F0E0808187688083ECE74B
:10014000F0E0808180668083089520917C00287F84
:1001500020937C0090917C00982B90937C00809160
:100160007A00806480937A0080917A0086FDFCCFCB
:100170008091790008958DB18F7C8DB985E08A9545
:10018000F1F700006D9A759885E08A95F1F7000007
:100190006C9A749885E08A95F1F7000008956C9840
:1001A00085E08A95F1F700006D9885E08A95F1F772
:1001B000000008956D9885E08A95F1F70000659933
:1001C0000DC06C9885E08A95F1F700006C9A7498E0
:1001D00085E08A95F1F70000659BF3CF6C98089550
:1001E0006C9885E08A95F1F700006C9A749885E028
:1001F0008A95F1F7000008951F93CF93DF93C82FDE
:10020000D62F142F0E94DA000E94BB0087E013C093
:100210006D9895E09A95F1F700006C9895E09A95A5
:10022000F1F700006C9A749895E09A95F1F7000048
:10023000CC0F815029F0C6FDEBCF6D9A7598E9CFB0
:100240006D9A759885E08A95F1F700006C9895E0B5
:100250009A95F1F700006C9A749885E08A95F1F709
:1002600000006D9895E09A95F1F700006C986599FB
:1002700041C085E08A95F1F700006C9A749895E08A
:100280009A95F1F7000088E014C06D9A759895E092
:100290009A95F1F700006C9895E09A95F1F70000B7
:1002A0006C9A749895E09A95F1F70000DD0F8150F3
:1002B00021F0D7FFEACF6D98EACF6D9885E08A9557
:1002C000F1F700006C98659910C095E09A95F1F7E8
:1002D00000006C9A749885E08A95F1F7000011117E
:1002E0000EC0DF91CF911F9108958EE091E00E94A2
:1002F0001104FFCF82E091E00E941104FFCF6C98BF
:1003000095E09A95F1F700006D9885E08A95F1F7F0
:100310000000DF91CF911F9108956623C1F1DC01A8
:100320009C01260F311D8D9198E0FD01319716C07B
:100330006D9A759885E08A95F1F700006C9885E0D4
:100340008A95F1F700006C9A749885E08A95F1F728
:1003500000008081880F8083915021F087FFE8CFD3
:100360006D98E8CF6D9885E08A95F1F700006C985C
:10037000659918C085E08A95F1F700006C9A749829
:1003800085E08A95F1F70000A217B30761F66C9833
:1003900085E08A95F1F700006D9885E08A95F1F780
:1003A000000008958BE091E00E941104FFCF0F93AD
:1003B0001F93CF93DF93182FEB01042F0E94BB00F4
:1003C00087E013C06D9895E09A95F1F700006C985E
:1003D00095E09A95F1F700006C9A749895E09A95DB
:1003E000F1F70000110F815029F016FDEBCF6D9A47
:1003F0007598E9CF6D9885E08A95F1F700006C98C3
:1004000095E09A95F1F700006C9A749885E08A95CA
:10041000F1F700006D9895E09A95F1F700006C985F
:10042000659956C085E08A95F1F700006C9A74983A
:1004300095E09A95F1F700006D9885E08A95F1F7BF
:100440000000002391F19E01200F311D98E088816A
:10045000880F88836C9885E08A95F1F70000659B8A
:1004600003C088818160888385E08A95F1F7000068
:100470006C9A749885E08A95F1F70000915039F7ED
:100480006D9A759895E09A95F1F700006C9885E063
:100490008A95F1F700006C9A749895E09A95F1F7B7
:1004A00000002196C217D30789F685E08A95F1F7F7
:1004B00000006C9895E09A95F1F700006D9885E042
:1004C0008A95F1F70000DF91CF911F910F91089568
:1004D00083E191E00E941104FFCFCF93DF930F924D
:1004E000CDB7DEB7498340E00E94FC0061E0CE0159
:1004F00001960E948D010F90DF91CF9108951F9377
:10050000CF93DF930F92CDB7DEB7182F41E00E9453
:10051000FC0041E0BE016F5F7F4F812F0E94D70139
:1005200089810F90DF91CF911F910895CF93DF9331
:100530000F92CDB7DEB741E061E08CE10E94FC0094
:1005400041E0BE016F5F7F4F8CE10E94D70189813E
:100550000F90DF91CF910895CF93DF930F92CDB796
:10056000DEB741E063E08CE10E94FC0041E0BE01A7
:100570006F5F7F4F8CE10E94D70189810F90DF91DF
:10058000CF910895CF93DF930F92CDB7DEB741E0BF
:1005900065E08CE10E94FC0041E0BE016F5F7F4F8F
:1005A0008CE10E94D70189810F90DF91CF9108954E
:1005B0008AE08A95F1F700C0449A8AE08A95F1F7BB
:1005C00000C044988AE08A95F1F700C00895F89435
:1005D00082B98AE08A95F1F700C0449A8AE08A9548
:1005E000F1F700C044988AE08A95F1F700C078944A
:1005F00008958F98F89482B98AE08A95F1F700C03F
:10060000449A8AE08A95F1F700C044988AE08A9576
:10061000F1F700C0789408958F9AF89482B98AE02F
:100620008A95F1F700C0449A8AE08A95F1F700C0F4
:1006300044988AE08A95F1F700C078940895803153
:1006400010F4623008F008956E5F6295660F660FD1
:10065000607C680F8F98F89462B98AE08A95F1F708
:1006600000C0449A8AE08A95F1F700C044988AE075
:100670008A95F1F700C0789485EC8A95F1F700002F
:1006800008953C9A879A8FEF81B98FE19EE4019794
:10069000F1F700C000008F98F89488E382B99AE0DF
:1006A0009A95F1F700C0449AEAE0EA95F1F700C0A4
:1006B0004498FAE0FA95F1F700C07894EFE7F2E099
:1006C0003197F1F700C000008F98F89482B9FAE0F2
:1006D000FA95F1F700C0449A9AE09A95F1F700C0B4
:1006E0004498EAE0EA95F1F700C07894EFE7F2E089
:1006F0003197F1F700C000008F98F89482B9FAE0C2
:10070000FA95F1F700C0449A9AE09A95F1F700C083
:100710004498EAE0EA95F1F700C07894EFE7F2E058
:100720003197F1F700C000008F98F89498E092B9E3
:10073000FAE0FA95F1F700C0449A9AE09A95F1F739
:1007400000C04498EAE0EA95F1F700C07894EFE73A
:10075000F2E03197F1F700C000008F98F89491E033
:1007600092B9FAE0FA95F1F700C0449A9AE09A95A6
:10077000F1F700C04498EAE0EA95F1F700C07894F8
:10078000EFE7FEE33197F1F700C000008F98F8948F
:1007900096E092B9FAE0FA95F1F700C0449A9AE02F
:1007A0009A95F1F700C04498EAE0EA95F1F700C0A5
:1007B0007894EFE7F2E03197F1F700C000008F98EE
:1007C000F89482B9FAE0FA95F1F700C0449A8AE009
:1007D0008A95F1F700C044989AE09A95F1F700C025
:1007E0007894EFE8F1E03197F1F700C000008F98BE
:1007F000F8948CE082B9FAE0FA95F1F700C0449AD7
:100800008AE08A95F1F700C044989AE09A95F1F74A
:1008100000C07894EFE8F1E03197F1F700C00000F4
:100820000895DC018C91882301F190E08F9AF8946F
:1008300082B98AE08A95F1F700C0449AEAE0EA9525
:10084000F1F700C04498FAE0FA95F1F700C0789407
:10085000EFE7F2E03197F1F700C000009F5FFD0184
:10086000E90FF11D80818111E1CF08951F93CF938E
:10087000DF939C01892B09F45AC045E011E0EFE0B9
:10088000F7E2CAE0D0E0C901BF016F5F7F4F0E946D
:100890009608662349F1E217F30770F5605D8F9AB9
:1008A000F89462B9BAE0BA95F1F700C0449A2AE028
:1008B0002A95F1F700C04498AAE0AA95F1F700C084
:1008C0007894AFE7B2E01197F1F700C0000010E0B4
:1008D0009C01CF01BE010E94AA08FB01415099F67C
:1008E000DF91CF911F910895E217F30718F41111CA
:1008F000EFCFD4CF1111EDCF605D8F9AF89462B92C
:10090000BAE0BA95F1F700C0449A8AE08A95F1F707
:1009100000C044989AE09A95F1F700C07894AFE748
:10092000B2E01197F1F700C0000010E0D2CF8F9A2B
:10093000F89480E382B92AE02A95F1F700C0449A3E
:100940008AE08A95F1F700C044989AE09A95F1F709
:1009500000C07894AFE7B2E01197F1F700C0000053
:10096000DF91CF911F9108958F98F89481E082B91B
:100970008AE08A95F1F700C0449A9AE09A95F1F7D7
:1009800000C044988AE08A95F1F700C078948FE718
:100990009EE30197F1F700C000000895382F262F3D
:1009A0004FEF6403C001112464E670E00E94AA08BE
:1009B000311107C06093B30012164CF45C9A5D9835
:1009C000089567BD121634F45E9A5F9808955D9A93
:1009D0005C9808955F9A5E980895A3EBB0E01C922E
:1009E0005D9A5C9817BC5F9A5E9884B1806984B9FF
:1009F0008AB1806F8AB9E0EBF0E0808188668083FD
:100A000080818260808384B5886684BD84B582607D
:100A100084BD8AE087BD8C9308955C9A5D982C9A7A
:100A20005F9A5E982F9A08950F920FB60F922F93A8
:100A30003F938F939F93EF93FF9320912C01822FED
:100A4000869590E020FF2FC020918800309189008A
:100A5000880F991FFC01E45EFE4F80819181820F17
:100A6000931F909389008093880038B120912C01C6
:100A7000269581E090E0022E01C0880F0A94EAF7E3
:100A80008095832388B980912C018F5F8770809334
:100A90002C01FF91EF919F918F913F912F910F909A
:100AA0000FBE0F9018952091880030918900880F13
:100AB000991FFC01EC5DFE4F80819181820F931F95
:100AC000909389008093880088B190912C0196952D
:100AD00021E030E001C0220F9A95EAF7822B88B915
:100AE000D2CF90E02AE0629FB00111246C53764F80
:100AF000880F991FFC01EC5DFE4F71836083845E5B
:100B00009E4F24ED30E3261B370BFC0131832083FD
:100B10000895A4E2B1E024EC39E011963C932E93C1
:100B2000ECE1F1E080E197E29183808313963C93BE
:100B30002E9312979383828315963C932E9314974A
:100B40009583848317963C932E9316979783868379
:100B500087B18F6087B9E1E8F0E010828081826020
:100B60008083EFE6F0E0808182608083789408954E
:100B70008CB18095881F8827881F0895282F30E022
:100B80008E3010F080E00895F901E35AF54F0C948F
:100B9000BE0886B190E02250310902C09595879534
:100BA0002A95E2F78170089583B190E029503109C8
:100BB00002C0959587952A95E2F7817008959CB1BA
:100BC000292F30E0A90102C0559547958A95E2F793
:100BD000CA018170089582B390E02F5F3F4F02C039
:100BE000959587952A95E2F78170089523B1E9CF0D
:100BF00083B18695817008958CB186FB882780F932
:100C0000089583B181700895282F30E08E3030F43C
:100C1000F901E559F54F0C94BE082198089522502A
:100C2000310981E090E001C0880F2A95EAF797B179
:100C3000662309F44DC0892B87B9089529503109DD
:100C400081E090E001C0880F2A95EAF794B166230D
:100C500009F446C0892B84B908952F5F3F4F81E086
:100C600090E001C0880F2A95EAF793B36623A1F1BB
:100C7000892B83BB089521E030E001C0220F8A95C3
:100C8000EAF78DB1662381F1282B2DB9089521E073
:100C900030E001C0220F8A95EAF784B1662381F023
:100CA000282B24B90895662309F4B7CF219A089513
:100CB000662361F06E9A0895662331F0209A0895B4
:100CC0002095282324B90895209808956E980895B2
:100CD0008095892387B908958095892383BB0895DA
:100CE0008095892384B90895209528232DB90895E6
:100CF000282F30E08E3030F4F901E758F54F0C948E
:100D0000BE08299808952250310981E090E001C081
:100D1000880F2A95EAF798B1662309F44DC0892B0C
:100D200088B908952950310981E090E001C0880F09
:100D30002A95EAF795B1662309F446C0892B85B94F
:100D400008952F5F3F4F81E090E001C0880F2A9502
:100D5000EAF794B36623A1F1892B84BB089521E0BF
:100D600030E001C0220F8A95EAF78EB1662381F147
:100D7000282B2EB9089521E030E001C0220F8A957A
:100D8000EAF785B1662381F0282B25B908956623FB
:100D900009F4B7CF299A0895662361F0769A0895E9
:100DA000662331F0289A08952095282325B90895BF
:100DB00028980895769808958095892388B908958C
:100DC0008095892384BB08958095892385B90895EA
:100DD000209528232EB90895811104C0613041F077
:100DE000A0980895613011F0A1980895A19A0895EE
:100DF000A09A0895811102C0A09A0895A19A089519
:100E0000811102C0A0980895A1980895529A83B3C1
:100E1000836083BB779A0E949A000E9441030E94DC
:100E200089050E94ED0441E06AE28CE10E946D02B6
:100E30002FEF81EE94E0215080409040E1F700C018
:100E400000000C94DA0000D000D000D0CDB7DEB79F
:100E50000E9406076FE780E00E9471056FE781E05E
:100E60000E94710560E085E00E94040660E084E075
:100E70000E9404066FE780E00E9471056FE781E041
:100E80000E947105D12CC12C6CC0892F880F880F4E
:100E9000981B892F8A5B8D3308F08CE3282F880FED
:100EA000330B440B550B29833A834B835C83CA0174
:100EB000B9010E9462092AE939E949E95EE36983D7
:100EC0007A838B839C8369817A818B819C810E9448
:100ED000EE0920E030E04EEF52E469837A838B83A1
:100EE0009C8369817A818B819C810E94C50869837A
:100EF0007A838B839C8369817A818B819C810E9418
:100F0000310980E00E9471053D81343108F490C0C0
:100F100068E880E00E9471056AE781E00E9471053F
:100F20009FEFA9EFB0E09150A040B040E1F700C0C2
:100F300000000E191F090F5F1F4F0330110508F441
:100F400065C09D81993C08F4BFC0A9EECA16A3E014
:100F5000DA0608F0D7C08FE99FE00197F1F700C0EB
:100F6000000024E1C20ED11C82E00E94A5008E8305
:100F700083E00E94A50085508D830E94B4043E81C9
:100F8000032F10E0C8010E94360480E091E00E9427
:100F900011044D81E42EF12CC7010E9436048FE12B
:100FA0009EE40197F1F700C000009E81943108F49F
:100FB0006CCF63E880E00E94710566E781E00E94E3
:100FC00071054FEF59EF80E0415050408040E1F70C
:100FD00000C000009D81943158F168E880E00E94D3
:100FE00071056AE781E00E9471059FEFA9EFB0E00B
:100FF0009150A040B040E1F700C000002E81233D99
:1010000008F497CF3D81333D08F493CF6BE880E03F
:101010000E94710563E781E00E9471054FEF51EE78
:1010200084E0415050408040E1F700C0000093CF81
:101030008D81880F880FAD81A81BAA5BA983AD3372
:1010400010F0BCE3B98329812195822F082E000C72
:10105000990BAA0BBB0B89839A83AB83BC83BC011E
:10106000CD010E9462092AE939E949E95EE3698311
:101070007A838B839C8369817A818B819C810E9496
:10108000EE0920E030E04EEF52E469837A838B83EF
:101090009C8369817A818B819C810E94C5086983C8
:1010A0007A838B839C8369817A818B819C810E9466
:1010B000310981E00E9471050E191F090F5F1F4F52
:1010C0000330110508F4A2CF4E81443C08F443CF0D
:1010D00059EEC51653E0D50608F43DCF63E781E02D
:1010E0000E9471056FE780E00E9471058FEF96E323
:1010F000AFE581509040A040E1F700C00000D12C46
:10110000C12C29CF6FE781E00E9471056AE880E079
:101110000E947105BFEF26E33FE5B150204030400B
:10112000E1F700C00000D12CC12C15CFAA1BBB1BBE
:1011300051E107C0AA1FBB1FA617B70710F0A61BD7
:10114000B70B881F991F5A95A9F780959095BC01F8
:10115000CD01089597FB072E16F4009407D077FD74
:1011600009D00E94960807FC05D03EF49095819521
:101170009F4F0895709561957F4F0895EE0FFF1F63
:101180000590F491E02D09945058BB27AA270E949E
:10119000DC080C94B4090E94A60938F00E94AD093D
:1011A00020F039F49F3F19F426F40C94A3090EF4AF
:1011B000E095E7FB0C949D09E92F0E94C50958F3BF
:1011C000BA17620773078407950720F079F4A6F52C
:1011D0000C94E7090EF4E0950B2EBA2FA02D0B010D
:1011E000B90190010C01CA01A0011124FF27591B6C
:1011F00099F0593F50F4503E68F11A16F040A22F72
:10120000232F342F4427585FF3CF469537952795E2
:10121000A795F0405395C9F77EF41F16BA0B620BE1
:10122000730B840BBAF09150A1F0FF0FBB1F661F28
:10123000771F881FC2F70EC0BA0F621F731F841F6B
:1012400048F4879577956795B795F7959E3F08F091
:10125000B0CF9395880F08F09927EE0F9795879553
:1012600008950E94CD0988F09F5798F0B92F9927CB
:10127000B751B0F0E1F0660F771F881F991F1AF081
:10128000BA95C9F714C0B13091F00E94E709B1E0F6
:1012900008950C94E709672F782F8827B85F39F0F5
:1012A000B93FCCF3869577956795B395D9F73EF41A
:1012B00090958095709561957F4F8F4F9F4F0895C2
:1012C000E89409C097FB3EF49095809570956195E0
:1012D0007F4F8F4F9F4F9923A9F0F92F96E9BB2796
:1012E0009395F695879577956795B795F111F8CF12
:1012F000FAF4BB0F11F460FF1BC06F5F7F4F8F4F7D
:101300009F4F16C0882311F096E911C0772321F072
:101310009EE8872F762F05C0662371F096E8862F0A
:1013200070E060E02AF09A95660F771F881FDAF761
:10133000880F9695879597F9089597F99F6780E8A4
:1013400070E060E008959FEF80EC089500240A9417
:101350001616170618060906089500240A94121690
:101360001306140605060895092E0394000C11F4C3
:10137000882352F0BB0F40F4BF2B11F460FF04C070
:101380006F5F7F4F8F4F9F4F089557FD9058440FC9
:10139000551F59F05F3F71F04795880F97FB991FD4
:1013A00061F09F3F79F08795089512161306140691
:1013B000551FF2CF4695F1DF08C01616170618061E
:1013C000991FF1CF86957105610508940895E894F9
:1013D000BB2766277727CB0197F908950E94010A5A
:1013E0000C94B4090E94A60938F00E94AD0920F0BF
:1013F000952311F00C949D090C94A30911240C94CD
:10140000E8090E94C50970F3959FC1F3950F50E05C
:10141000551F629FF001729FBB27F00DB11D639FA6
:10142000AA27F00DB11DAA1F649F6627B00DA11D4C
:10143000661F829F2227B00DA11D621F739FB00DF2
:10144000A11D621F839FA00D611D221F749F332762
:10145000A00D611D231F849F600D211D822F762FFB
:101460006A2F11249F5750409AF0F1F088234AF0D8
:10147000EE0FFF1FBB1F661F771F881F9150504044
:10148000A9F79E3F510580F00C949D090C94E80942
:101490005F3FE4F3983ED4F3869577956795B795CB
:1014A000F795E7959F5FC1F7FE2B880F911D9695E5
:1014B000879597F90895F894FFCFDF05DF05EB05D1
:1014C000EB05FC05F605F605C905C905C9050106C4
:1014D000D405D405F8053B063B062D062D06580617
:1014E000470647060F060F060F065C061E061E0679
:1014F0005306AF06AF06A106A106CC06BB06BB0687
:0E150000830683068306D00692069206C7066F
:10150E002000616464724E41434B0077725F4E411E
:0C151E00434B00726561644E41434B007A
:00000001FF
