:100000000C942E000C944B000C944B000C944B0061
:100010000C944B000C944B000C944B000C940C056E
:100020000C944B000C944B000C944B000C944B0024
:100030000C944B000C944B000C944B000C944B0014
:100040000C944B000C944B000C944B000C944B0004
:100050000C944B000C944B000C944B0011241FBECD
:10006000CFEFD0E1DEBFCDBF11E0A0E0B1E0E8EC22
:10007000F3E102C005900D92A032B107D9F721E05B
:10008000A0E2B1E001C01D92A133B207E1F70E94E6
:100090001B070C94B8090C940000CF93DF9300D099
:1000A00000D00F92CDB7DEB78D83862F660F990BE8
:1000B000AA0BBB0B89839A83AB83BC83BC01CD01A4
:1000C0000E94BF082AE939E949E95EE369837A8336
:1000D0008B839C8369817A818B819C810E944B09EF
:1000E00020E030E04EEF52E469837A838B839C8377
:1000F00069817A818B819C810E94220869837A833D
:100100008B839C8369817A818B819C810E948E087C
:100110008D810F900F900F900F900F90DF91CF91E6
:100120000C946905EAE7F0E0808187688083ECE75A
:10013000F0E0808180668083089520917C00287F94
:1001400020937C0090917C00982B90937C00809170
:100150007A00806480937A0080917A0086FDFCCFDB
:100160008091790008958DB18F7C8DB985E08A9555
:10017000F1F700006D9A759885E08A95F1F7000017
:100180006C9A749885E08A95F1F7000008956C9850
:1001900085E08A95F1F700006D9885E08A95F1F782
:1001A000000008956D9885E08A95F1F70000659943
:1001B0000DC06C9885E08A95F1F700006C9A7498F0
:1001C00085E08A95F1F70000659BF3CF6C98089560
:1001D0006C9885E08A95F1F700006C9A749885E038
:1001E0008A95F1F7000008951F93CF93DF93C82FEE
:1001F000D62F142F0E94D2000E94B30087E013C0B4
:100200006D9895E09A95F1F700006C9895E09A95B5
:10021000F1F700006C9A749895E09A95F1F7000058
:10022000CC0F815029F0C6FDEBCF6D9A7598E9CFC0
:100230006D9A759885E08A95F1F700006C9895E0C5
:100240009A95F1F700006C9A749885E08A95F1F719
:1002500000006D9895E09A95F1F700006C9865990B
:1002600041C085E08A95F1F700006C9A749895E09A
:100270009A95F1F7000088E014C06D9A759895E0A2
:100280009A95F1F700006C9895E09A95F1F70000C7
:100290006C9A749895E09A95F1F70000DD0F815003
:1002A00021F0D7FFEACF6D98EACF6D9885E08A9567
:1002B000F1F700006C98659910C095E09A95F1F7F8
:1002C00000006C9A749885E08A95F1F7000011118E
:1002D0000EC0DF91CF911F91089582E191E00E94BD
:1002E0000904FFCF86E091E00E940904FFCF6C98DB
:1002F00095E09A95F1F700006D9885E08A95F1F701
:100300000000DF91CF911F9108956623C1F1DC01B8
:100310009C01260F311D8D9198E0FD01319716C08B
:100320006D9A759885E08A95F1F700006C9885E0E4
:100330008A95F1F700006C9A749885E08A95F1F738
:1003400000008081880F8083915021F087FFE8CFE3
:100350006D98E8CF6D9885E08A95F1F700006C986C
:10036000659918C085E08A95F1F700006C9A749839
:1003700085E08A95F1F70000A217B30761F66C9843
:1003800085E08A95F1F700006D9885E08A95F1F790
:10039000000008958FE091E00E940904FFCF0F93C1
:1003A0001F93CF93DF93182FEB01042F0E94B3000C
:1003B00087E013C06D9895E09A95F1F700006C986E
:1003C00095E09A95F1F700006C9A749895E09A95EB
:1003D000F1F70000110F815029F016FDEBCF6D9A57
:1003E0007598E9CF6D9885E08A95F1F700006C98D3
:1003F00095E09A95F1F700006C9A749885E08A95DB
:10040000F1F700006D9895E09A95F1F700006C986F
:10041000659956C085E08A95F1F700006C9A74984A
:1004200095E09A95F1F700006D9885E08A95F1F7CF
:100430000000002391F19E01200F311D98E088817A
:10044000880F88836C9885E08A95F1F70000659B9A
:1004500003C088818160888385E08A95F1F7000078
:100460006C9A749885E08A95F1F70000915039F7FD
:100470006D9A759895E09A95F1F700006C9885E073
:100480008A95F1F700006C9A749895E09A95F1F7C7
:1004900000002196C217D30789F685E08A95F1F707
:1004A00000006C9895E09A95F1F700006D9885E052
:1004B0008A95F1F70000DF91CF911F910F91089578
:1004C00087E191E00E940904FFCFCF93DF930F9261
:1004D000CDB7DEB7498340E00E94F40061E0CE0171
:1004E00001960E9485010F90DF91CF9108951F938F
:1004F000CF93DF930F92CDB7DEB7182F41E00E9464
:10050000F40041E0BE016F5F7F4F812F0E94CF0159
:1005100089810F90DF91CF911F910895CF93DF9341
:100520000F92CDB7DEB741E061E08CE10E94F400AC
:1005300041E0BE016F5F7F4F8CE10E94CF01898156
:100540000F90DF91CF910895CF93DF930F92CDB7A6
:10055000DEB741E063E08CE10E94F40041E0BE01BF
:100560006F5F7F4F8CE10E94CF0189810F90DF91F7
:10057000CF910895CF93DF930F92CDB7DEB741E0CF
:1005800065E08CE10E94F40041E0BE016F5F7F4FA7
:100590008CE10E94CF0189810F90DF91CF91089566
:1005A0008AE08A95F1F700C0449A8AE08A95F1F7CB
:1005B00000C044988AE08A95F1F700C00895F89445
:1005C00082B98AE08A95F1F700C0449A8AE08A9558
:1005D000F1F700C044988AE08A95F1F700C078945A
:1005E00008958F98F89482B98AE08A95F1F700C04F
:1005F000449A8AE08A95F1F700C044988AE08A9587
:10060000F1F700C0789408958F9AF89482B98AE03F
:100610008A95F1F700C0449A8AE08A95F1F700C004
:1006200044988AE08A95F1F700C078940895803163
:1006300010F4623008F008956E5F6295660F660FE1
:10064000607C680F8F98F89462B98AE08A95F1F718
:1006500000C0449A8AE08A95F1F700C044988AE085
:100660008A95F1F700C0789485EC8A95F1F700003F
:1006700008953C9A879A8FEF81B98FE19EE40197A4
:10068000F1F700C000008F98F89488E382B99AE0EF
:100690009A95F1F700C0449AEAE0EA95F1F700C0B4
:1006A0004498FAE0FA95F1F700C07894EFE7F2E0A9
:1006B0003197F1F700C000008F98F89482B9FAE002
:1006C000FA95F1F700C0449A9AE09A95F1F700C0C4
:1006D0004498EAE0EA95F1F700C07894EFE7F2E099
:1006E0003197F1F700C000008F98F89482B9FAE0D2
:1006F000FA95F1F700C0449A9AE09A95F1F700C094
:100700004498EAE0EA95F1F700C07894EFE7F2E068
:100710003197F1F700C000008F98F89498E092B9F3
:10072000FAE0FA95F1F700C0449A9AE09A95F1F749
:1007300000C04498EAE0EA95F1F700C07894EFE74A
:10074000F2E03197F1F700C000008F98F89491E043
:1007500092B9FAE0FA95F1F700C0449A9AE09A95B6
:10076000F1F700C04498EAE0EA95F1F700C0789408
:10077000EFE7FEE33197F1F700C000008F98F8949F
:1007800096E092B9FAE0FA95F1F700C0449A9AE03F
:100790009A95F1F700C04498EAE0EA95F1F700C0B5
:1007A0007894EFE7F2E03197F1F700C000008F98FE
:1007B000F89482B9FAE0FA95F1F700C0449A8AE019
:1007C0008A95F1F700C044989AE09A95F1F700C035
:1007D0007894EFE8F1E03197F1F700C000008F98CE
:1007E000F8948CE082B9FAE0FA95F1F700C0449AE7
:1007F0008AE08A95F1F700C044989AE09A95F1F75B
:1008000000C07894EFE8F1E03197F1F700C0000004
:100810000895DC018C91882301F190E08F9AF8947F
:1008200082B98AE08A95F1F700C0449AEAE0EA9535
:10083000F1F700C04498FAE0FA95F1F700C0789417
:10084000EFE7F2E03197F1F700C000009F5FFD0194
:10085000E90FF11D80818111E1CF08951F93CF939E
:10086000DF939C01892B09F45AC045E011E0EFE0C9
:10087000F7E2CAE0D0E0C901BF016F5F7F4F0E947D
:10088000F307662349F1E217F30770F5605D8F9A6D
:10089000F89462B9BAE0BA95F1F700C0449A2AE038
:1008A0002A95F1F700C04498AAE0AA95F1F700C094
:1008B0007894AFE7B2E01197F1F700C0000010E0C4
:1008C0009C01CF01BE010E940708FB01415099F62F
:1008D000DF91CF911F910895E217F30718F41111DA
:1008E000EFCFD4CF1111EDCF605D8F9AF89462B93C
:1008F000BAE0BA95F1F700C0449A8AE08A95F1F718
:1009000000C044989AE09A95F1F700C07894AFE758
:10091000B2E01197F1F700C0000010E0D2CF8F9A3B
:10092000F89480E382B92AE02A95F1F700C0449A4E
:100930008AE08A95F1F700C044989AE09A95F1F719
:1009400000C07894AFE7B2E01197F1F700C0000063
:10095000DF91CF911F9108958F98F89481E082B92B
:100960008AE08A95F1F700C0449A9AE09A95F1F7E7
:1009700000C044988AE08A95F1F700C078948FE728
:100980009EE30197F1F700C000000895382F262F4D
:100990004FEF6403C001112464E670E00E94070871
:1009A000311107C06093B30012164CF45C9A5D9845
:1009B000089567BD121634F45E9A5F9808955D9AA3
:1009C0005C9808955F9A5E980895A3EBB0E01C923E
:1009D0005D9A5C9817BC5F9A5E9884B1806984B90F
:1009E0008AB1806F8AB9E0EBF0E08081886680830D
:1009F00080818260808384B5886684BD84B582608E
:100A000084BD8AE087BD8C9308955C9A5D982C9A8A
:100A10005F9A5E982F9A08950F920FB60F922F93B8
:100A20003F938F939F93EF93FF9320913001822FF9
:100A3000869590E020FF2FC020918800309189009A
:100A4000880F991FFC01E05EFE4F80819181820F2B
:100A5000931F909389008093880038B120913001D2
:100A6000269581E090E0022E01C0880F0A94EAF7F3
:100A70008095832388B9809130018F5F8770809340
:100A80003001FF91EF919F918F913F912F910F90A6
:100A90000FBE0F9018952091880030918900880F23
:100AA000991FFC01E85DFE4F80819181820F931FA9
:100AB000909389008093880088B190913001969539
:100AC00021E030E001C0220F9A95EAF7822B88B925
:100AD000D2CF90E02AE0629FB00111246C53764F90
:100AE000880F991FFC01E85DFE4F71836083805E73
:100AF0009E4F24ED30E3261B370BFC01318320830E
:100B00000895A8E2B1E024EC39E011963C932E93CD
:100B1000E0E2F1E080E197E29183808313963C93D9
:100B20002E9312979383828315963C932E9314975A
:100B30009583848317963C932E9316979783868389
:100B400087B18F6087B9E1E8F0E010828081826030
:100B50008083EFE6F0E0808182608083789408955E
:100B60008CB18095881F8827881F0895282F30E032
:100B70008E3010F080E00895F901E654F64F0C94A1
:100B80001B0886B190E02250310902C095958795E7
:100B90002A95E2F78170089583B190E029503109D8
:100BA00002C0959587952A95E2F7817008959CB1CA
:100BB000292F30E0A90102C0559547958A95E2F7A3
:100BC000CA018170089582B390E02F5F3F4F02C049
:100BD000959587952A95E2F78170089523B1E9CF1D
:100BE00083B18695817008958CB186FB882780F942
:100BF000089583B181700895282F30E08E3030F44D
:100C0000F901E853F64F0C941B08219808952250DF
:100C1000310981E090E001C0880F2A95EAF797B189
:100C2000662309F44DC0892B87B9089529503109ED
:100C300081E090E001C0880F2A95EAF794B166231D
:100C400009F446C0892B84B908952F5F3F4F81E096
:100C500090E001C0880F2A95EAF793B36623A1F1CB
:100C6000892B83BB089521E030E001C0220F8A95D3
:100C7000EAF78DB1662381F1282B2DB9089521E083
:100C800030E001C0220F8A95EAF784B1662381F033
:100C9000282B24B90895662309F4B7CF219A089523
:100CA000662361F06E9A0895662331F0209A0895C4
:100CB0002095282324B90895209808956E980895C2
:100CC0008095892387B908958095892383BB0895EA
:100CD0008095892384B90895209528232DB90895F6
:100CE000282F30E08E3030F4F901EA52F64F0C94A0
:100CF0001B08299808952250310981E090E001C035
:100D0000880F2A95EAF798B1662309F44DC0892B1C
:100D100088B908952950310981E090E001C0880F19
:100D20002A95EAF795B1662309F446C0892B85B95F
:100D300008952F5F3F4F81E090E001C0880F2A9512
:100D4000EAF794B36623A1F1892B84BB089521E0CF
:100D500030E001C0220F8A95EAF78EB1662381F157
:100D6000282B2EB9089521E030E001C0220F8A958A
:100D7000EAF785B1662381F0282B25B9089566230B
:100D800009F4B7CF299A0895662361F0769A0895F9
:100D9000662331F0289A08952095282325B90895CF
:100DA00028980895769808958095892388B908959C
:100DB0008095892384BB08958095892385B90895FA
:100DC000209528232EB90895811104C0613041F087
:100DD000A0980895613011F0A1980895A19A0895FE
:100DE000A09A0895811102C0A09A0895A19A089529
:100DF000811102C0A0980895A1980895529A83B3D2
:100E0000836083BB779A0E9492000E9439030E94FC
:100E100081050E94E50441E06AE28CE10E946502DE
:100E20002FEF81EE94E0215080409040E1F700C028
:100E300000000C94D20000D000D000D0CDB7DEB7B7
:100E40000E94FE066FE780E00E9469056FE781E07F
:100E50000E94690560E08AE00E94FC050E94AC04E3
:100E600080E091E00E94090421E02D8300E031E060
:100E70003E831BE98AE00E94B605882309F480C0FE
:100E800081E00E949D00873908F493C0212F281B20
:100E9000022E000C330B440B550B29833A834B83F2
:100EA0005C83CA01B9010E94BF082AE939E949E90E
:100EB0005EE369837A838B839C8369817A818B81EA
:100EC0009C810E944B0920E030E04EEF52E46983A0
:100ED0007A838B839C8369817A818B819C810E9438
:100EE000220869837A838B839C8369817A818B81D1
:100EF0009C810E948E08802F0E94690580E00E94DC
:100F00009D00873908F45FC08B59282F880F330B59
:100F1000440B550B29833A834B835C83CA01B90187
:100F20000E94BF082AE939E949E95EE369837A83C7
:100F30008B839C8369817A818B819C810E944B0980
:100F400020E030E04EEF52E469837A838B839C8308
:100F500069817A818B819C810E94220869837A83CE
:100F60008B839C8369817A818B819C810E948E080E
:100F70008D810E9469058AE00E94B605811180CFAB
:100F80008AE00E94B6058823D9F34E81413001F1F1
:100F90000E94AC0480E091E00E94090400E081E03E
:100FA0008D8391E09E8381E00E949D00873908F047
:100FB0006DCF6FE7802F0E94690580E00E949D0041
:100FC000873908F0A1CF6FE78D810E94690552CF64
:100FD0000E94AC0483E091E00E9409041D8201E0BC
:100FE0005FEF5E834DCFAA1BBB1B51E107C0AA1F59
:100FF000BB1FA617B70710F0A61BB70B881F991FBA
:101000005A95A9F780959095BC01CD01089597FB5D
:10101000072E16F4009407D077FD09D00E94F3073D
:1010200007FC05D03EF4909581959F4F08957095EB
:1010300061957F4F0895EE0FFF1F0590F491E02D0D
:1010400009945058BB27AA270E9439080C9411090B
:101050000E94030938F00E940A0920F039F49F3FEA
:1010600019F426F40C9400090EF4E095E7FB0C94B7
:10107000FA08E92F0E94220958F3BA17620773078A
:101080008407950720F079F4A6F50C9444090EF432
:10109000E0950B2EBA2FA02D0B01B90190010C0188
:1010A000CA01A0011124FF27591B99F0593F50F4A0
:1010B000503E68F11A16F040A22F232F342F4427F8
:1010C000585FF3CF469537952795A795F0405395F0
:1010D000C9F77EF41F16BA0B620B730B840BBAF0C0
:1010E0009150A1F0FF0FBB1F661F771F881FC2F72B
:1010F0000EC0BA0F621F731F841F48F4879577953F
:101100006795B795F7959E3F08F0B0CF9395880FF8
:1011100008F09927EE0F9795879508950E942A0960
:1011200088F09F5798F0B92F9927B751B0F0E1F0A8
:10113000660F771F881F991F1AF0BA95C9F714C058
:10114000B13091F00E944409B1E008950C94440933
:10115000672F782F8827B85F39F0B93FCCF3869591
:1011600077956795B395D9F73EF4909580957095EE
:1011700061957F4F8F4F9F4F0895E89409C097FB6B
:101180003EF490958095709561957F4F8F4F9F4F5E
:101190009923A9F0F92F96E9BB279395F6958795A2
:1011A00077956795B795F111F8CFFAF4BB0F11F465
:1011B00060FF1BC06F5F7F4F8F4F9F4F16C088230C
:1011C00011F096E911C0772321F09EE8872F762F42
:1011D00005C0662371F096E8862F70E060E02AF083
:1011E0009A95660F771F881FDAF7880F969587956F
:1011F00097F9089597F99F6780E870E060E0089597
:101200009FEF80EC089500240A941616170618061E
:101210000906089500240A941216130614060506FA
:101220000895092E0394000C11F4882352F0BB0F8B
:1012300040F4BF2B11F460FF04C06F5F7F4F8F4FEE
:101240009F4F089557FD9058440F551F59F05F3F29
:1012500071F04795880F97FB991F61F09F3F79F0D8
:1012600087950895121613061406551FF2CF46955A
:10127000F1DF08C0161617061806991FF1CF8695DC
:101280007105610508940895E894BB2766277727C0
:10129000CB0197F908950E945E090C9411090E94F0
:1012A000030938F00E940A0920F0952311F00C94EC
:1012B000FA080C94000911240C9445090E94220993
:1012C00070F3959FC1F3950F50E0551F629FF00199
:1012D000729FBB27F00DB11D639FAA27F00DB11DB2
:1012E000AA1F649F6627B00DA11D661F829F22273B
:1012F000B00DA11D621F739FB00DA11D621F839FC2
:10130000A00D611D221F749F3327A00D611D231F97
:10131000849F600D211D822F762F6A2F11249F57E5
:1013200050409AF0F1F088234AF0EE0FFF1FBB1FE8
:10133000661F771F881F91505040A9F79E3F5105A7
:1013400080F00C94FA080C9445095F3FE4F3983E52
:10135000D4F3869577956795B795F795E7959F5F51
:10136000C1F7FE2B880F911D9695879597F90895E3
:10137000F894FFCFD705D705E305E305F405EE059F
:10138000EE05C105C105C105F905CC05CC05F00583
:10139000330633062506250650063F063F06070698
:1013A000070607065406160616064B06A706A706E6
:1013B00099069906C406B306B3067B067B067B0630
:0813C000C8068A068A06BF0672
:1013C800324100324200616464724E41434B0077FF
:1013D800725F4E41434B00726561644E41434B005E
:00000001FF
